:020000040800F2
:10000000F0FF022081FD0608C9FD0608012A02084A
:10001000C9FD0608C9FD0608C9FD06080000000064
:10002000000000000000000000000000C9FD0608FC
:10003000C9FD060800000000C9FD0608D5D001086A
:10004000C9FD0608C9FD0608C9FD0608C9FD060860
:10005000C9FD0608C9FD0608B9AE0008C1AE000812
:10006000C9AE0008D1AE0008D9AE0008C9FD060827
:10007000C9FD0608C9FD0608C9FD0608C9FD060830
:10008000C9FD0608C9FD0608C9FD0608C9FD060820
:10009000C9FD0608C9FD0608C9FD0608E1AE00084D
:1000A000C9FD0608C9FD0608C9FD0608FDD40008FB
:1000B0000DD500081DD500082DD500087DA300082A
:1000C00071A30008C5A30008B9A30008C9FD06086C
:1000D000C9FD06089DC901086DCA01083DCB01088C
:1000E000E9AE0008C9FD0608C9FD0608C9FD0608F5
:1000F000C9FD0608C9FD0608C9FD0608C9FD0608B0
:10010000C9FD0608C9FD06083DD50008C9FD060859
:100110000DCC0108DDCC0108C9FD0608C9FD0608A3
:1001200051AB000865AB000879AB00088DAB000847
:10013000A1AB0008C9FD0608C9FD0608C9FD0608EF
:10014000C9FD0608C9FD0608C9FD060869D00008F2
:10015000B5AB0008C9AB000800000000ADCD010838
:1001600005A40008F9A3000800000000000000003A
:10017000C9FD0608C9FD0608C9FD06080000000003
:1001800000000000C9FD06087DCE01084DCF010822
:10019000C9FD06080000000000000000000000008B
:1001A000000000000000000000000000C9FD06087B
:1001B000C9FD060800000000C9FD06080000000097
:1001C000000000000000000000000000000000002F
:1001D0000000000000000000C9FD0608C9FD060877
:1001E000C9FD06087DCF0008C9FD0608C9FD06083F
:1001F000DDAB0008F1AB000805AC000819AC000845
:0C0200002DAC000841AC000855AC000813
:1080000030B5EAB18E464FEA014C034600F1C00597
:10801000002419689A6841EA0C0142EA0E029A604B
:10802000C3E900140C33AB42F3D1D0F8C030C0F830
:10803000C44043EA0E03C0F8C030C0F8C84030BDA9
:108040004FEA014E8C46E0E710B40C4C2368002B3D
:1080500011DD002004F1040C0146DCF8743003F15A
:10806000C00259600C339342FBD123680130834234
:108070000CF1AC0CF1DC5DF8044B7047A819002042
:1080800070B5474C04EB401393F8D02202B970BD91
:108090004C2202FB004294F8145694F815E692F82C
:1080A000B66383F8B66275454FF000034FEA401C93
:1080B00082F8B6330CD00EEB4E0304EBC30393F8F7
:1080C0001826561E012E4FEA4E035BD9032A53D0C1
:1080D00004EB0C00A0F8B412EFF31182902383F3A9
:1080E000128890F8B632B0F8B41243EA4103002186
:1080F000D2B29BB280F8B61282F311881A0994F8B2
:10810000781682EA13225A40D1B1D0F8CC42D0F886
:10811000B812646FD2431B019BB202F00F02012020
:108120008840134304F1C0015A0013F4004F93B286
:1081300002D16268024362600C348C42F4D170BD9B
:10814000D0F8CC12D0F8B8024C6F1B0100F110012E
:108150009BB202F00F0201208840134304F1C001DA
:108160005A0013F4004F93B202D162680243626076
:108170000C34A142F4D170BD0EF1010202F00302F1
:10818000AA42A5D0734404EBC303184490F8251603
:1081900000299DD004EB0C03012283F8B62297E757
:1081A000A8190020704700BF704700BF024B03EBC7
:1081B000401090F8D1027047A81900204368826CE3
:1081C00010B49A61EFF31182502383F3128841684F
:1081D000C46B0B6823EA0403446C2343D2B20B60E4
:1081E00082F31188D0E907418268036912681C6034
:1081F0005960D0E909419C60D960B0F85C10D16247
:1082000000235DF8044B0376704700BF026890F8C6
:1082100010C01168022303FA0CF3194200D1704711
:1082200010B4074C41684FF0000C84F879C6086818
:108230006CF3000008605DF8044B5360704700BFAA
:10824000A8190020704700BF0B4890F8B01689B1FC
:1082500001EB4101002310B4490000F5D7601C4632
:1082600050F82320063302B114608B42F8D15DF838
:10827000044B7047704700BFA81900200B4890F8C6
:10828000B01689B101EB4101002310B4490000F59B
:10829000D7601C4650F82320063302B1146099427F
:1082A000F8D15DF8044B7047704700BFA819002053
:1082B00001207047034B00EB400003EBC00090F837
:1082C000C9067047A81900201F4890F8B036CBB3F4
:1082D00000222DE9F04100F5D7631C4F50262C25D4
:1082E000144607E053F8181B0C6090F8B0160132E2
:1082F000914225DD197C0029F4D059684FEA912E6E
:10830000AEF5801EBEF1530F4FF0FE0C98BF17F86C
:108310000EC0EFF3118E86F31288D1F8248005FB8E
:108320000C0C08F10108CCF8A087D1F8148048F0B3
:1083300001085FFA8EFCC1F814808CF31188D1E734
:10834000BDE8F081704700BFA8190020201707087A
:1083500007EE900AB8EE670A704700BFBCEEC00A8D
:1083600010EE103A98B27047704700BF704700BFD8
:10837000704700BF704700BF01207047094A0A4B91
:10838000D2F8BC29D3F89002526AD3F8941292F82A
:108390005330012B08BFB2F85030A0EB010008BFEA
:1083A000C0187047A8190020A02A0020012380F8D7
:1083B0005130704710B4EFF31181802383F312889A
:1083C0000C4AC9B2D2F89832D2F89C42D2F898023C
:1083D000D2F89C2281F31188904203F1FF33A3EB82
:1083E00004038CBF0020012003EBC0205DF8044B88
:1083F000704700BFA02A00204A4B4B4A1B6893429B
:108400004CD015D9494A934251D027D9484A934272
:1084100056D002F1B77202F5585293427DD1454BC6
:10842000D3F8A4200B2161F30F32C3F8A4207047C6
:10843000414A93424DD020D9404A934252D002F152
:10844000B77202F5585293426AD13A4BD3F8A4203E
:10845000052161F30F32C3F8A4207047384A9342D4
:1084600049D0384A93425AD1324BD3F8A42006213E
:1084700061F30F32C3F8A4207047334A934243D0CC
:1084800002F1B77202F55852934247D1294BD3F803
:10849000A4206FF30F32C3F8A4207047254BD3F804
:1084A000A420042161F30F32C3F8A4207047214BAC
:1084B000D3F8A420092161F30F32C3F8A420704738
:1084C0001C4BD3F8A420082161F30F32C3F8A42079
:1084D0007047184BD3F8A420032161F30F32C3F87F
:1084E000A4207047134BD3F8A420022161F30F326C
:1084F000C3F8A42070470F4BD3F8A420072161F3E1
:108500000F32C3F8A42070470A4BD3F8A4200121EE
:1085100061F30F32C3F8A42070477047704770476B
:10852000704700BF00000020007A030A001C4E0EB6
:108530000052BC0F0038024000D8B805000E2707D3
:1085400000B0710B00E6DF0C006CDC02074BD0F8CA
:1085500094105B68D0F8A0205B1A9A42B8BFC0F8AC
:10856000A030012380F8CC3000207047001000E0DC
:1085700003689A69D10508D54FF480721321817779
:10858000DA611A6822F080021A609A69920508D5A9
:108590004FF4007213218177DA611A6822F08002A9
:1085A0001A609A69510508D54FF4806213218177CA
:1085B000DA611A6822F080021A609A69120508D5F9
:1085C0004FF4006213218177DA611A6822F0800289
:1085D0001A609A69D10408D54FF48052132181772B
:1085E000DA611A6822F080021A609A69920408D54A
:1085F0004FF4005213218177DA611A6822F0800269
:108600001A607047184BD3F8A012D3F8A4228A1A24
:10861000322A15D8D3F8B8228A4200D37047D3F84B
:10862000A822E2B11068928810B44469224218BFAF
:10863000120432315DF8044B8261C3F8B8127047FE
:10864000D3F8A8223AB193F8B40291881268C0070F
:1086500048BF090491610022C3F8B8227047323143
:10866000C3F8B812704700BFA02A0020064AD2F80B
:10867000A8323BB192F8B4129A881B68C90748BF68
:1086800012049A6100207047A02A00204FF4007065
:10869000034B1060D3F8C8320B600020704700BF56
:1086A000A02A002000207047012070470120704759
:1086B0000020704710B51C6994420DD396468A1865
:1086C0008C469442996938BFA4EB0E0C7144624603
:1086D000BDE8104068F05CBF10BD00BF01234377C8
:1086E00000207047D0E90B2108B583690B448361F2
:1086F0000AB108469047002008BD00BF436A1B68C6
:108700001B6A5B685B78024613F0010008BF507774
:10871000704700BF70B5224A224C234B94B00546E7
:10872000CDE90042214A0992A4F108020A922A7F67
:108730000493201D0023CDE905039A42CDE90E33B1
:108740000B931093139314BF0520042011936B6AAD
:108750000C9002200122029018688DF80C200E4621
:1087600007928DF820208DF834208DF8482065F090
:108770002DFD2B7F93B1330E04F8073C063C320CE1
:10878000330A22706370A670686A694612F0EEFCC4
:108790006B6A186865F01AFD14B070BD073CEEE70F
:1087A000982D00200C000020FD860008DD860008C2
:1087B00010B5044694B050220649684668F0E8FEB9
:1087C000606A694612F0D2FC636A186865F0FEFCC4
:1087D00014B010BD74170708C2628161704700BFF2
:1087E0002DE9F0410446406A00681E460F46904657
:1087F00065F0ECFC237F002B37D0254DA0690523C5
:10880000EB64030E6B7505F116039870020C000AF9
:1088100058701A703B68AB650020D8F800302B66A2
:10882000012E2363286727D0022E1CD1D8F80420FC
:10883000A866796885F86400E966134415496A6793
:108840000120236385F87800E967134B617F606A34
:1088500003F11402002914BF1946114612F086FCD8
:10886000E36A83B1206BBDE8F081094DA069042360
:10887000EB6405F11503C8E7064B85F86460C5E9AC
:108880001A306867E1E7636A186865F09FFCE9E7FA
:1088900000000020E58600081C000020704700BF93
:1088A00000B583B081610192049A0093C2620123F2
:1088B0006A4601A9FFF794FF03B05DF804FB00BF0F
:1088C00004307047C2628161704700BF436A1B6811
:1088D0001B6A5B689B78024613F0010008BF507763
:1088E000704700BF0123437700207047D0E90B2178
:1088F00008B583690B4483610AB10846904700209C
:1089000008BD00BF704700BF0430704710B4094C69
:10891000D4F8FC024FF0340C0CFB00F004EB000C1C
:1089200004F540742044DCF80043A469A4465DF8D3
:10893000044B6047A02A0020064BD3F8FC223421C8
:1089400001FB02F203F5407013441044D3F80033E6
:10895000DB691847A02A0020043070470D4B93F8BC
:108960006C23D3F868130244D2B283F86C2393F8D3
:108970006C2308441206C3F8680305D593F86C23EA
:1089800082F0800283F86C23034B012283F8942049
:10899000704700BFA02A0020000000202DE9F0470A
:1089A000144FD7F87053ED0A1ED00026B04607F5D5
:1089B0006A79D7F874331048D3F828A0C7F8A08391
:1089C000AC19641010234A46E102D0470F280BDD92
:1089D0000A4B03F1100C53F8041B013107D1634516
:1089E000F9D12546B542E4DCE802BDE8F087661C13
:1089F000F8E700BFA02A0020142E0020482E0020F7
:108A000030B4194B00209C7B14B11D688D4206D0F8
:108A100001300B2803F11003F5D130BC70479AB137
:108A2000124B03EB40218A4219D0114B93F8E427F3
:108A30008AB1104B01225A7000F5B17003EB00109F
:108A40000123837130BC70470A4B00F5B17003EB12
:108A500000108271E1E7012283F8E427E9E7022CA4
:108A6000E3D1183BE8E700BFAC7D0020AC670020F5
:108A7000947700209467002030B41D4C002384F8C4
:108A8000D03604F5C36004E001330B2B00F1100075
:108A900015D005688D42F7D190F80EC0BCF1030FD8
:108AA000F2D1C2B1134901EB4320824209D1A1F1B5
:108AB000180203F5B17302EB031301229A7130BC63
:108AC000704794F8E42712B9012284F8E4270A4A8F
:108AD00001215170EDE70849D4F8CC2603F5B173B4
:108AE00001EB0313013204219971C4F8CC26E6E7A7
:108AF00094770020AC67002094670020A8B18368B9
:108B00001BB10E4B07229A7070470C4A1178D36044
:108B100003294FF004000CBF80214FF48071C2E99B
:108B200001111361137590707047044A02F580516A
:108B30000123537081F8E437704700BF9467002029
:108B400030B4436919690A686FF300020A609A68D1
:108B5000B3F80CC01468E26822EA0C02E260046810
:108B600090F810C02068082202FA0CF202403AD1B4
:108B7000224890F87856022000FA0CF06060002D30
:108B80002FD0187E01282FD0D3F8A0100131C3F8C0
:108B9000A010EFF31180502181F312885C68DD6B27
:108BA000216821EA05011D6C2943C0B2216080F3D0
:108BB000118898681969DC6A00680C601C6B4C604D
:108BC0005C6B8C609C6BCC604262B3F87C20C262B0
:108BD0000A68012422430A601C76C2689B891343F9
:108BE000C36030BC7047FEE7D3F8A4000130C3F87F
:108BF000A4000B6862F300030B60F2E7A8190020E1
:108C00001A4A0368934210B504460AD0184A9342A0
:108C100013D0184A93421CD01A6842F001021A601D
:108C200010BD15485CF078FB14492368D1F8202862
:108C300022F40012C1F82028EEE711485CF06CFB2A
:108C40000E492368D1F8202822F48002C1F8202898
:108C5000E2E70C485CF060FB08492368D1F8202863
:108C600022F40002C1F82028D6E700BF00540040DB
:108C700000580040005C0040150020000030024019
:108C800016002000170020002DE9F84314F06CFABC
:108C9000204F214E05464FF000094FF0AC083C68CC
:108CA000002C2ADD00231A4608FB0371013391F8DA
:108CB000A1109C4242EA0102F6D142EA0904E4B260
:108CC00091467368C3F30803A3B9EFF311838BB91B
:108CD00018F0A8FF431BB3F5FA6F02DCB9F1000FDF
:108CE000DDD124B10D4B93F8B823542A09D0204686
:108CF000BDE8F88314F00CFAECE74C464FF000099D
:108D0000DFE7B3F8C0230132A3F8C0232046BDE853
:108D1000F88300BFA819002000ED00E0A02A002081
:108D2000C94B93F878360BB9012070472DE9F04F05
:108D3000C64FC749D7F8A022C64BA1FB0212520961
:108D4000A3FB023B4FEADB0B0BEB8B0B85B0A2EBDB
:108D50004B0B5FFA8BF3039307F2AC630193BA4BAF
:108D600007F5737A03F52D7900230AEB8B0B1D466B
:108D7000D7F8BC37AB4240F31A81D9F81830D9F88C
:108D80000460D3E9258414F0EFF94FEA860E0EF162
:108D9000085E0EEB481E97F8B883029004F18061DC
:108DA00097F8B4073939B8F1540F0EEB81110EEB77
:108DB000801301D1A7F8C203994240F26B811A686F
:108DC000002A00F05F811A6C002A00F07181D3F84C
:108DD0008020002A00F06E81D3F8C02003F5807354
:108DE000002AE9D1A3EB0E0E99424FEAAE1E40F2E3
:108DF0005181A4EB0E0145294FF0000428BF452105
:108E000003EB81119C46204626460DE01A6C002A91
:108E100040F0D480D3F88020002A40F0FA80D3F8C4
:108E2000C02003F580732AB9994206D91A68002A2E
:108E3000ECD04033994200F2C580112E344640F206
:108E40002D81D6F1150200F129818349029ED1F8C6
:108E500098309E45D7F8B83738BFC1F898E0F11A76
:108E6000002919DB03F5F42303F590739E4288BFB4
:108E7000029B794988BF0533C7F8B837764BD3F8DA
:108E80009830052B86BF053BDBB2002387F8B4374B
:108E90004FF0FF33C1F8983042B100FA02F2C4F14A
:108EA0001404012000FA04F444EA02006B4BC0F3FE
:108EB000C43203EB8202D2F8A44000F01F0203EB9D
:108EC0008202D2F8A410C0F3441203EB8202C0F372
:108ED000842003EB8000D2F8A43041EA043141EA57
:108EE0000311D0F8A43041EA032181EA112383EA77
:108EF000131303F00F030F2B40F0B480B1F5803F44
:108F000080F0B080B8F1540F4FEA111104D1B7F8D6
:108F1000BC330133A7F8BC33D7F8B436B1F5606F72
:108F200003F10103C7F8B43600F0D580019B9981A5
:108F30009AF858300398834214D0DBF80820DAF806
:108F400000309B1ACAF80030DBF83020DAF8043021
:108F50009B1ACAF804300023CBF80830CBF8303025
:108F60008AF85800DAF800300133CAF80030DBF82C
:108F700008300133CBF808304FF6FF73994209D11E
:108F8000DAF804300133CAF80430DBF8303001334A
:108F9000CBF83030019B01351433082D0AF15C0AFF
:108FA0000BF15C0B019309F120097FF4E1AE012381
:108FB000012087F8B03705B0BDE8F08F80339942C3
:108FC0007FF63BAFA3EB0C029211541C244A82FBA8
:108FD00004C2A2EBE472012AB8BF0122904001242E
:108FE0001644013A04FA02F210431C46226892B178
:108FF000226C002A60D0D4F88020002A5ED0D4F8F9
:10900000C02004F580743AB1A142EFD89C462346B3
:109010000AE7C0330EE74034A142F7D9E31A9B11A7
:109020005A1C0F4B83FB02C3A3EBE273012BB8BFA7
:10903000012398401E440122013B02FA03F3184326
:1090400023469C462346EFE6A8190020A02A0020CC
:109050001F85EB51CDCCCCCC000000202017070899
:1090600056555555B8F1540F2AD0D7F8B4360133B8
:10907000C7F8B436D7F8B0360133C7F8B0364FF674
:10908000FF7155E74033A3EB0E0E99424FEAAE1E37
:109090003FF6AFAE10B1013887F8B407B8F1540FFE
:1090A0007FF478AFB7F8BE330133A7F8BE3371E76A
:1090B000803397E6C03395E68034ADE7C034ABE744
:1090C000B7F8BC330133A7F8BC33D7F8B436013353
:1090D000C7F8B436CEE7084A92F8153603EB4303D7
:1090E00002EBC3032B4493F825360D2B7FF41EAF00
:1090F000019A802393771BE7A819002010B5044636
:1091000067F0AAFC81B22046BDE81040FEF7B8BF68
:1091100038B50B4D00EB400005F5D76303EBC003FA
:1091200093ED027AD3ED037AE7EE007AC4002C4483
:10913000B0EE670A67F090FCD4F8B836186038BD16
:10914000A8190020F8B51F4E96F8142696F8153683
:109150009A4231D13568002D12DD002496F87866E8
:109160001948274606B3037E012B20D002691368F5
:10917000013443F00103AC4200F1AC001360F1D1C3
:1091800013F0F2FF114BD3F8C047002C0BDD03F2B4
:10919000C47303EBC40419689A88C868083302438F
:1091A000A342CA60F7D1F8BDFFF708F8DEE780F800
:1091B0009C70FFF703F8D9E763F02AFC0028C9D1B7
:1091C000F8BD00BFA8190020AC190020A02A00207B
:1091D00038B51A4B93F8142693F815369A4228D1CD
:1091E000174D95F8E4371BB34FF0000C05F5FD6201
:1091F0006146136859621868083261F3C710186035
:1092000032F8040CD862186840F0800018601868C2
:1092100061F341001860DC6832F8020C95F8E4E76D
:109220000CF1010C2043E645D86022F8021CE0DC7A
:1092300038BD63F0EDFB0028D2D138BDA81900205D
:10924000A02A00200C4AF8B5136855692B4003EAA0
:10925000000555617DB1094F0126B5FA85F4C4F1C9
:109260001F0407EB840306FA04F4D3F82808036804
:109270009847A543F1D1F8BD003C0140A02A002049
:109280000269C3682DE9F04712EA03092AD00546AE
:109290000E464FF000474FF00008B9FA89F327FA5D
:1092A00003F2D2431B3B2A6109EA0209042B16D8B8
:1092B000DFE803F0332A221A0300B36A002B35D00B
:1092C00003F1FF3A1FFA8AFAC6F82880746A34B1AB
:1092D00023682046514698476468002CF8D1B9F1BC
:1092E000000FDAD1BDE8F0877068A98E036898474F
:1092F000B9F1000FD1D1F5E7B068298F036898471D
:10930000B9F1000FC9D1EDE7F068E96B036889B2E4
:109310009847B9F1000FC0D1E4E73069296C0368C0
:1093200089B29847B9F1000FB7D1DBE7E96A1FFAB4
:1093300081FACBE730B5124A124CD2F8303883B0FC
:1093400043F00103C2F830384FF4C0554FF0817339
:1093500069462046CDE900535CF034FF636A23F48C
:1093600070236362636A43F420236362636A23F4B5
:1093700070436362636A43F42043636203B030BDA9
:1093800000300240000002402DE9F047044600682A
:10939000237C0268022101FA03F31A4201D1BDE8DD
:1093A000F087D4F814A0DFF878829C4ADFF8749232
:1093B0005268C9F868284C2707FB0A87D7F8BC23EE
:1093C000B7F8C0131668D7F8F453F26822EA01021E
:1093D000F2602A686FF300022A6098F8782612B9C2
:1093E0004360BDE8F08728465BF0A4FFD9F87038E9
:1093F000012287F8E023002B00F00A8133686FF325
:10940000C71333604C2303FB0A834FF0FF3293F8FA
:10941000F033F262062B29D8DFE813F0D2002800DF
:10942000AA002800820028000700336A6FF30C337B
:1094300033624C2303FB0A83326A93F8F11361F31E
:109440004D323262F26993F8F21361F30922F2614C
:1094500093F8F323F36962F30F33F361F3696FF366
:109460008B23F361336A43F4805333622A684C23BD
:1094700003FB0A834BF6EF7002400020A3F8D403ED
:109480002A602968B3F8D4230A432A602A6893F82B
:10949000DD1361F30D322A602A6893F8DB1361F360
:1094A0008B222A602A6893F8DA1361F309222A6072
:1094B0002A6893F8D91361F3C7122A6093F8D81376
:1094C0002A6861F386122A6093F8DC132A6861F334
:1094D00045122A60B3F8D6136A6861F30F026A6016
:1094E000D3F8CC23AA60D3F8D023EA60D3F8F423CE
:1094F00016215160116841F001011160D3F8BC23BD
:10950000B3F8C03312682068D1680B43D360434A74
:10951000237C5168C9F86C18022202FA03F35FE752
:10952000336A6FF3082333624C2303FB0A83316AE7
:1095300093F8F12362F349213162316AC2F34002A8
:1095400062F3CB213162F26993F8F21361F3010205
:10955000F26193F8F323F36962F30713F361F3699C
:109560006FF38303F361336A43F4807333627DE7FF
:10957000336A6FF3041333624C2303FB0A83316AAB
:1095800093F8F12362F345113162316AC2F340026C
:1095900062F3C7113162B26993F8F21361F30922E1
:1095A000B26193F8F323B36962F30F33B361B36924
:1095B0006FF38B23B361336A43F01003336255E7D3
:1095C000336A6FF3000333624C2303FB0A83316A6F
:1095D00093F8F12362F341013162316AC2F3400230
:1095E00062F3C3013162B26993F8F21361F30102CD
:1095F000B26193F8F323B36962F30713B361B369FC
:109600006FF38303B361336A43F0010333622DE7E1
:1096100013F0AAFDC9F87008F0E600BF001000E0E2
:10962000A8190020A02A002038B51E4CD4F890328A
:1096300073B1D4F89422D4F890329A4208D0D4F876
:109640009432E218013392F87408C4F8943238BDA9
:10965000154BD3F8BC390022596AC4F8942291F80A
:10966000533003F0FF05ABB1B1F8505081F85320EF
:109670005DB193B2C8182344007983F87408B1F837
:109680005000013293B29842F3D808484022043186
:109690005DF04CFCC4F89052D4F890020028CED172
:1096A000D5E700BFA02A0020A819002060230020D1
:1096B00090F850305A1C0344D2B280F8502083F8FE
:1096C0003C1090F851300BB1132A01D965F034BC2D
:1096D000704700BF002280F8512065F02DBC00BF0C
:1096E0002DE9F0430446406A344D006895B00E46BB
:1096F0009146984664F06AFD314B0193314B0493D7
:1097000005F1A4030093217F0223029305F19C023B
:10971000012300278DF80C3005920697002936D0DA
:109720008DF834308DF84830CDE90977330ECDE926
:109730000E77CDE9107785F89D300523CDF82C9074
:109740008DF82070CDF8308013979E350793330C39
:109750001D4F2B70330A6B70AE7057F8800C656A22
:1097600012F032F8637FA88033BB05A9284611F0B8
:10977000FDFC636A186864F029FD57F87C0C12F050
:1097800023F8636A9880404615B0BDE8F0838DF8F1
:1097900034308DF848300423CDE90911CDE90E119C
:1097A000CDE91011CDF82C908DF82010CDF8308037
:1097B00013919D350793CAE76946D7E7000000205B
:1097C000143B0020FD860008983B00202DE9F0475F
:1097D000089F884615460021202204461E4667F051
:1097E0003AFF4FB13B68E3811B0C23827B687A8987
:1097F000E3821B0C62822383404665F0C1FBEB06CB
:1098000019D4431EB8B108EB000701E0013B12D3A5
:1098100017F801CDBCF12E0FF8D1C01A421E032A51
:10982000A8BF0322082B03F1010AA8BF0823914611
:10983000C2441A4606E008280246C246A8BF0822CB
:109840004FF000094FF0203341462360636004F17C
:109850000807204667F09CFE174B23815146BB70DA
:109860004A46384667F094FE611EE31D11F801CFA9
:10987000ACF1610EBEF1190F9CBFACF1200C81F868
:1098800000C08B42F2D1384604F10B0110F8013BC5
:10989000A3F16102192A9CBF203B00F8013C8842D9
:1098A000F4D118232373330CA382E572099B6683DA
:1098B000E361BDE8F08700BF202020002DE9F04FD4
:1098C000DFF88094D9F8A002C9F8A40287B0002B71
:1098D00000F0D88001F5FE781344DFF86CB40393F0
:1098E000164601F12007C2461FE0002E62D0D9F8CB
:1098F000D432B34200F0CA80D9F8D032B34200F07B
:10990000FD80D9E9B631B3424BD8B14200F297811C
:10991000711A204661F0FCFB039B01369E4207F55D
:1099200000770AF5007A00F0AD80D9F8E052B54230
:10993000A7F12004D9D8751BD9F8F08205F00702E9
:10994000EB080492D8F830200233934203D3D8F8BE
:10995000382093420BD941461846059361F0A8FB85
:10996000059B8046002800F08A81C9F8F00298F82B
:109970000420002A40F03281D8F82850002D00F051
:109980007781D8F830209B1A049A02EBC303D8F8E9
:109990000C20204602EB43224FF400714346A847B7
:1099A000BAE7B142B4D920464FF40072002167F003
:1099B00052FEB1E74FF400723146204667F04BFE8D
:1099C000802387F89E310C2387F8A231D9F8D03252
:1099D000D34AD9F8C812C4F8C6319342C4F8CA11A0
:1099E00000F33281CF4AD04C82FB03021A44D817CD
:1099F000C0EB621284FB0254CC4D85FB03C5C0EB67
:109A00002530C2EB821587F8A1015B1B801020F086
:109A10003F0001330343144487F8A031D317C3EB4D
:109A2000E4142244BE4B87F89F214A1E9A4200F359
:109A30001781BC4BBC4883FB02311144D317C3EBE5
:109A4000611180FB0140B94C84FB0254C3EB243309
:109A5000C1EB811487F8A531121B9B1023F03F0343
:109A600001321343084487F8A431CB17C3EBE0104D
:109A7000014487F8A311552387F8DE31AA2387F81C
:109A8000DF3149E7002007B0BDE8F08F4FF0FF332A
:109A900084F8EC3184F8ED3184F8EE3184F8EF315C
:109AA000D9F8E832C4F8E831522323706370612397
:109AB000A37084F8E73141230025E37084F8E63190
:109AC000722384F8E43184F8E5314FF4F0722946CA
:109AD000A7F11C0067F0BFFD5523C7F8D051C7F8A8
:109AE000D451C7F8D85184F8FE316FF0550384F88B
:109AF000FC5184F8FD5184F8FF310DE700214FF44B
:109B00000072204667F0A7FD894A03CA47F81D0C7A
:109B1000EB2007F8200C582007F81F0C902047F87E
:109B2000191C07F81E0C002302220821F820E372FA
:109B3000227307F8131CA273E37307F8102C07F8BD
:109B40000B0CD9F8D00284F82C20D9F8C8226376FF
:109B5000121A2262D9E9B602121A3F2020764FF07B
:109B6000FF30A0763E2020770120E3766377A3774D
:109B7000E37784F82D3084F82E3084F82F30626239
:109B800084F8300084F8313087F82610802187F877
:109B90002010292187F82210942187F823100E2104
:109BA00087F824100D21634A87F82510552187F87E
:109BB000DE11AA2187F8DF1103CA5F4BC7F827001F
:109BC000C7F82B1003CB1388A7F82F309378C7F86A
:109BD0003200C7F8361087F831309DE64FF4007236
:109BE0000021204667F037FD049B002B4ED1D8F8AA
:109BF0004030002B00F0AA80049AD8F830304F494A
:109C0000CDE9002220461122FFF7E0FDD8F84030D0
:109C10001A6C002A00F0AD80049A1B6BCDE900227B
:109C2000474911223846FFF7D1FDD8F8448007F1A3
:109C300020044FF4E075B8F1000F3FD16CE6F11A43
:109C4000204661F065FA67E6FF2387F89F3187F8C1
:109C5000A13187F8A031324B4A1E9A427FF7E9AE14
:109C6000FF2387F8A33187F8A53187F8A43102E7ED
:109C7000294620464FF4007267F0EDFC4CE6A7F150
:109C8000240343F804BF9A45FBD145E6D8F8403099
:109C9000049AD8F84480002B0CBF01230223C3EBA5
:109CA00002154346002B3FF437AE013D9B6CF9D1C2
:109CB00098464FF40075002B3FF42EAE2544203417
:109CC000234620354446049698460EE05CF81C1B5B
:109CD000236BCDF800C000260196FFF777FDA46C3A
:109CE00008F12008CCB1A84517D02379A44604F187
:109CF0001C0E1122A8F12000002BE7D16279266901
:109D0000236B216842F02102CDE900E6FFF75EFDFA
:109D1000A46C08F12008002CE5D1049EFCE500BFEE
:109D2000FF03FB0083200882818080809755454196
:109D3000D8A70708E4A70708F0A70708D0A70708CF
:109D4000D4A70708A02A0020DEADBEEF049BD9F8F7
:109D5000CC12CDE9003320460822FFF737FDD8F8B2
:109D60004480B8F1000F3FF4D7AD3C464FF4F07596
:109D7000A4E7049BCDE9003352E700BF38B590F863
:109D80002830012B044604D0407F40B10023637784
:109D900038BD406A03681A7B92B9637F0BB9012012
:109DA00038BD0A4D0A490223A5F1780211F06CFB77
:109DB00015F8773C03F0010383F001006377E7E7D0
:109DC0001B6A002BE9D0002038BD00BF983B002063
:109DD000A80000202DE9F0410446154E90F8280017
:109DE000637F144FA6F17808012805D00BB100233A
:109DF00063770120BDE8F081606A05682A7B82B93B
:109E0000002BF6D002234246394611F03DFB16F8EE
:109E1000773C03F001036377002BEAD094F8280025
:109E2000E2E72A6A002AE8D1002BE2D0EAE700BF85
:109E3000983B0020A8000020F0B511F0010583B088
:109E40000AD190F82860012E044607D0C368B3F108
:109E5000807F01D90123237703B0F0BD0A4B476A05
:109E600053F8800C11F0B0FCE368B880B3F1807F48
:109E7000F2D9B7218DF80410267733462A463846A2
:109E800001A911F001FBE7E7983B002010B590F81D
:109E90002830012B044603D000230120637710BD36
:109EA000406A03681A7B3AB964F094F900F0010340
:109EB00083F001006377F2E71B6A002BF4D00020E7
:109EC00010BD00BF38B5114D044694F82830012B61
:109ED00005D00023637700232362012038BD606A28
:109EE00003681A7B72B964F075F900F001006077BD
:109EF0000028F0D0D5F8A032226A9B1A002BE4DBB0
:109F0000002038BD1B6A002BEDD0F3E7A02A00200B
:109F100010B5FF22044690F82810406A64F09AFDBC
:109F20000E4BD3F8A03203F5FA7323622046FFF7F5
:109F3000C9FF94F82830012B00D010BD606A0022C0
:109F4000A02164F061FD94F82830012BF5D1606AFE
:109F50001822BDE81040B02164F056BDA02A0020B0
:109F6000CB0700D5704710B50446FFF7D1FF94F832
:109F70002830012B00D010BD024811F025FC636A87
:109F8000988010BD00E1F50538B504460D46FFF791
:109F900099FF062294F82810606A64F05BFD94F83B
:109FA000283001229342627705D0064BD3F8A032C5
:109FB0000F33236238BD606AEA0AD82164F000FDDD
:109FC000F3E700BFA02A00208388002B4AD02DE9A8
:109FD000F04F8DB0DFF890800446002606274FF042
:109FE00001090DF1070509E084F81D90D8F8A032A9
:109FF000A28801360F33B242236230D92046FFF7E0
:10A0000061FF94F828A0D4F824B08DF80770BAF155
:10A01000010FE9D1002302A95846CDE90253CDE949
:10A020000633CDE908330B93CDF810A08DF814A0BA
:10A030008DF828A011F09AF8DBF8000064F0C6F85B
:10A0400094F8283084F81DA07204012B4FEAD22224
:10A050004FF0D801CAD1606A64F0B2FCC6E70DB017
:10A06000BDE8F08F704700BFA02A002070B5104DEA
:10A0700015F8763C03B970BD55F8746C0D4B044669
:10A08000F60AC3F8AC60FFF71DFF94F82830012BE7
:10A0900008D0094BD3F8A0320022023305F8762C01
:10A0A000236270BD606A3246102164F089FCF0E7DB
:10A0B000983B002000000020A02A00202DE9F04756
:10A0C000414F1E46D7F8AC30B3EBD12F90B00C46C1
:10A0D0000546904621D1DFF8F49095F82830C4F376
:10A0E0000A04C4F50060B04234BF87B2B7B2012B96
:10A0F0003CD0D9F8A032023328462B62FFF7E2FEAB
:10A1000038B195F82830012B23D0384610B0BDE87F
:10A11000F087002010B0BDE8F0874FEAD12AFFF7A2
:10A12000D1FE0028F5D095F828304FF0FF32012BF2
:10A13000C7F8AC2042D0DFF89490D9F8A0320233AF
:10A1400028462B62FFF7BEFE0028E2D0C7F8ACA07D
:10A15000C3E7686A64F03EF8C0F3011001380228D2
:10A16000D3D82846FFF7D4FE3846CFE78DF8024013
:10A17000240A8DF801406C6A8DF824308DF838304F
:10A18000032300228DF800302046042301A9CDE9E5
:10A190000786CDE90522CDE90A22CDE90C228DF80A
:10A1A000032002928DF810200F92CDF804D0039373
:10A1B00010F0DCFF206864F009F89AE7686A5246FC
:10A1C000132164F0FDFBB6E700000020A02A002068
:10A1D0002DE9F843436A384E044618680F46904606
:10A1E00063F0F4FF16F8763C002B37D0334D56F869
:10A1F000703C85F85231C3F3022385F8513105F1E3
:10A20000B0093B68C5F85831D8F800302C4AC5F879
:10A210006031606A00234946C5F8683111F05CFD81
:10A2200056F8703CD8F80020134446F8703CC3F34D
:10A230000A07012306F8763CEFB1224BC5F86831D6
:10A24000637F0BB909F11409606A2263494610F073
:10A250008DFFE36A43B3206BBDE8F883A369174D14
:10A2600046E91D3385F85631C3F3022385F855318D
:10A2700005F58079C5E756F8743C134A606AD90A37
:10A28000C5F8AC10DB0C85F88311A2F12C0185F820
:10A29000823111F021FD56F8703CD8F8002006F804
:10A2A000767C46F8743CCBE7636A186863F08EFFEF
:10A2B000206BBDE8F88300BF983B00200000002021
:10A2C00058010020ED8800088401002033B910B542
:10A2D0001C46C36A20469847204610BD78E700BF59
:10A2E00000B583B081610192049AC26201A96A46F5
:10A2F0000093FFF76DFF03B05DF804FB174A1849A0
:10A30000D2F8883030B443F47003C2F888300B6858
:10A3100043F001030B600B689B07FCD58B68104A68
:10A320006FF301038B60936813F00C0FC3F381018B
:10A33000F9D19160136809480A4D23F0867323F41C
:10A34000803313604FF41F044FF000635560C2F870
:10A35000A010D46030BC8360704700BF00ED00E007
:10A360000038024002300300704700BF00207047F1
:10A370000148FEF7FDB800BF443B00200C4B53F8EA
:10A380003C3C023B072B11D8DFE803F00D0D0A0A15
:10A3900007070404074864F07FBB064864F0D8BB95
:10A3A000044864F053BC034864F0F8BC704700BF35
:10A3B000983B0020443B00200148FEF7D9B800BF7D
:10A3C000983B00200B4B9B69023B072B11D8DFE821
:10A3D00003F00D0D0A0A07070404064864F05CBB8D
:10A3E000044864F0B5BB034864F030BC014864F035
:10A3F000D5BC7047983B00200148FEF7B9B800BFB4
:10A40000EC3B00200B4BDB6E023B072B11D8DFE847
:10A4100003F00D0D0A0A07070404074864F03CBB6B
:10A42000054864F095BB044864F010BC024864F031
:10A43000B5BC7047983B0020EC3B002070B404682A
:10A44000D4E904215368002900F091804861157C0B
:10A4500016684A68022000FA05F545F00C0575609B
:10A460000D7C0968A84040F00C00486019686FF343
:10A470000001196011686FF3000111601068A16993
:10A4800040F0020010601D684BF6EF7C05EA0C05F9
:10A490001D6018680D8905431D6018684D7C65F3C3
:10A4A0000D3018601868CD7B65F38B201860186834
:10A4B0008D7B65F3092018604D7B186865F3C71024
:10A4C00018600D7B186865F38610186018680D7C9D
:10A4D00065F34510186058684D8965F30F005860A2
:10A4E000086849689860D9601068E16900EA0C0062
:10A4F0001060156808892843106010684D7C65F36A
:10A500000D3010601068CD7B65F38B2010608D7B63
:10A51000106865F3092010604D7B106865F3C71063
:10A5200010600D7B106865F38610106010680D7C5C
:10A5300065F34510106050684D8965F30F00506059
:10A54000D1E900019060D160196841F00101196002
:10A55000136843F00103136063685A6842F0010214
:10A560005A605A6842F002025A6070BC7047157C0B
:10A57000506110680222AA4042F00C0242601A6840
:10A5800061F300021A601968A2694BF6EF7001408E
:10A59000196018681189014319601968507C60F3CB
:10A5A0000D3119601968D07B60F38B21196019682F
:10A5B000907B60F3092119601968507B60F3C71123
:10A5C00019601968107B60F3861119601968107C96
:10A5D00060F3451119605089596860F30F015960A3
:10A5E000D2E900129960DA601A6842F001021A603A
:10A5F0001A68616842F002021A604B6843F0020375
:10A600004B6070BC704700BFF8B505462C6895F8E4
:10A6100038706368012284F824201A686FF3861268
:10A620001A60A8882289824219D0B0F5807F02463C
:10A63000A8BF4FF48072022AB8BF02221968002A0C
:10A6400092FAA2F2B2FA82F208BF4FF0FF32013A58
:10A6500021F0380141EAC20292B21A6020812A7BBD
:10A66000A17A91420AD01968002A72D06FF3410191
:10A67000196019686FF300011960A2721A6842F03C
:10A6800040021A60216A8A68002A79D000200646B2
:10A69000143116448A680130002AF9D1227B62B154
:10A6A0005FB1012872D8072E70D800EB80029200AB
:10A6B000216A0A44127B002A68D0226A9268002626
:10A6C000002A4FD00EB1327B22B1AA6812B11168B4
:10A6D00092888A62226A1768226A5168226A92689E
:10A6E00002F1FF3C92B117B33A4612F8010B17463C
:10A6F0009A689207FCD5D8609A68D207FCD5DA68C8
:10A7000009B101F8012BBCF1010CECD2236A1B7BCF
:10A71000C3B9236A1B6963B1236A686C1B699847D4
:10A7200001280AD0022804D100232362F8BDFF20AB
:10A73000DEE7266A236A14332362236A9B688BB19F
:10A740006368BFE7AB68002BE3D01A689B8893610E
:10A75000DFE741F002011960196841F00101196059
:10A76000A2728BE7236A1B68002B35D0236A1D6811
:10A77000236A5968236A21620022C3E9002245E75F
:10A78000217B002999D0002F92D196E7206AA369F6
:10A7900082680168B9B159600121597392B25A8136
:10A7A0002B685B6933B14168E369B9B10120596035
:10A7B00058735A81AB6813B11A689B889362284614
:10A7C000BDE8F8403AE659730649FF2681F8D4619E
:10A7D00001F5EA715960E1E72362F8BD024858606B
:10A7E0005973E6E7000000207C3C002038B5D0F823
:10A7F00090102B4B04465A68D0F8880071B1131A98
:10A8000099420BDC94F88030C4F88820012B10D0DA
:10A81000D4F884300133C4F8843038BDD4F894308F
:10A82000C4F888200344C4F88C3094F88030012B9D
:10A83000EED16168201D04F19805EFF3118C10230F
:10A8400083F3128863681B6A0BB3D4F8A0302A46DE
:10A850001BB1D3691432002BFBD10B6A6BB1996821
:10A8600039B9934209D0196829B15B689968002900
:10A87000F7D01433F3E7C3E900055FFA8CFC8CF3DF
:10A880001188D4F884300133C4F8843038BD0D62A7
:10A890005FFA8CFC8CF31188FFF7B6FEB8E700BFB7
:10A8A000001000E02DE9F041826992F88C30012B14
:10A8B0008AB0054649D0023B012B50D892F8FC30B3
:10A8C000D26C2D4C63F07F0313708669336DD6F81C
:10A8D000108003F1010E0FCCEC46ACE80F00F36CD6
:10A8E000CDE9003E0FCCACE80F0094E8030006F180
:10A8F00010078CE80300EFF31180102383F3128814
:10A9000033691B6A002B2ED0029B6A461BB1D369A8
:10A910001432002BFBD1D8F8203073B1996839B9C3
:10A9200093420AD0196829B15B6899680029F7D069
:10A930001433F3E71F60C3F804D0C0B280F311886A
:10A94000AA6911690B6A002BFCD1136D5A8852BA9F
:10A95000EA819A8852BA2A82DB885BBA6B8201202C
:10A960000AB0BDE8F081C8F820D0C0B280F31188E9
:10A970003846FFF749FEE3E7441807082DE9F041A0
:10A9800090F88C30056D012B8AB004466ED015D836
:10A99000C36C4FF0FF321A605A609A60DA60D0F8E8
:10A9A00090300522B3F57A7FC0F8A02079D8032330
:10A9B00080F88C3001200AB0BDE8F081023B012B09
:10A9C000F8D890F8FD30C26C4F4E63F07F031370DF
:10A9D000036DD0F8108003F1010E00F110070FCEC7
:10A9E000EC46ACE80F00E36CCDE9003E0FCEACE8DE
:10A9F0000F0096E803008CE80300EFF311801023AA
:10AA000083F3128823691B6A002B6FD0029B6A466E
:10AA10001BB1D3691432002BFBD1D8F8203073B1AD
:10AA2000996839B993420AD0196829B15B68996865
:10AA30000029F7D01433F3E71F60C3F804D0C0B285
:10AA400080F311882269136A002BFCD16B885BBAF2
:10AA5000A4F88030AB885BBAA4F88230EB88012080
:10AA60005BBAA4F884300AB0BDE8F08190F8FC200D
:10AA700090F8FD309B1A5B100133DBB205EB43020B
:10AA800035F813305BBAA0F8803053885BBAA0F871
:10AA9000823093885BBAA0F8843001200AB0BDE808
:10AAA000F08103691A7B52B35B6943B390F8483075
:10AAB0002BB390F8FC30C26C606563F07F031370B9
:10AAC00090F8FC1090F8FD30026D1048C4F8B40006
:10AAD0005B1A07330121C4F8AC30E36C84F8B01082
:10AAE0000A44C4E9293284F88C1063E7C8F820D0FE
:10AAF000C0B280F311883846FFF786FDA2E7022333
:10AB000084F88C3056E700BF441807084D850008CC
:10AB100010B1036882889A61704700BF10B1036862
:10AB200082889A62704700BF08B51D2011F0D8F9DD
:10AB300008B183794BB11E2011F0D2F908B18379A5
:10AB400003B108BD5523C38008BD5523C380F2E778
:10AB50000348D0F8E43113B100F5EC7018477047A2
:10AB6000000000200348D0F8083213B100F5FE7051
:10AB700018477047000000200348D0F82C3213B16A
:10AB800000F5087018477047000000200348D0F80F
:10AB9000503213B100F511701847704700000020C3
:10ABA0000348D0F8743213B100F51A701847704793
:10ABB000000000200348D0F8983213B100F523704C
:10ABC00018477047000000200348D0F8BC3213B18A
:10ABD00000F52C7018477047000000200348D0F89B
:10ABE000E03213B100F535701847704700000020BF
:10ABF0000348D0F8043313B100F53E70184770478E
:10AC0000000000200348D0F8283313B100F5477046
:10AC100018477047000000200348D0F84C3313B1A8
:10AC200000F5507018477047000000200348D0F826
:10AC3000703313B100F559701847704700000020B9
:10AC40000348D0F8943313B100F562701847704789
:10AC5000000000200348D0F8B83313B100F56B7042
:10AC6000184770470000002010B501380B4C0C4B02
:10AC700000EBC00004EB8004D4F8D80198420CBF6C
:10AC80003620382062F00AF8D4F8D821D2F8003102
:10AC900043F00103C2F8003110BD00BF00000020E6
:10ACA00000640240F8B50138124C00EBC00004EB20
:10ACB00080041E461048D4F8D83183420CBF362099
:10ACC000382015460F4661F0E9FFD4F8D801D0F8D6
:10ACD000003143F00103C0F8003194F9E901C4F8F0
:10ACE000E471C5F30112A909C4F8EC61BDE8F840AC
:10ACF0005BF0B0BA0000002000640240D3B20D2B1C
:10AD00002AD84FF0000C10B46346144C04E0013311
:10AD1000202B1DD014F803CF6045F8D194F801C062
:10AD20008C45F4D10E4902EB420401EB840201F59B
:10AD300074700C4903EB43030B4400EB840093F85D
:10AD40004E315DF8044BC2F8D83382F8D0337047E7
:10AD500000205DF8044B7047002070476C1807080E
:10AD6000000000202017070810B40C4C002304F149
:10AD7000E80C01E0152B0CD003EB430201331CF867
:10AD800002108142F6D122445DF8044B92F9EA00A8
:10AD900070474FF0FF305DF8044B7047983B002040
:10ADA00030B40023114C124D04E001331C2B1AD097
:10ADB00054F8085FA842F8D125798D42F5D10D48A5
:10ADC0000D4902EB420400EBC30001EB840390F851
:10ADD000B121C3F8D82301F5747101EB840083F825
:10ADE000D02330BC7047002030BC7047CC18070817
:10ADF000000001402017070800000020F0B110B546
:10AE000004460F4894F804E0002300F1E80C01E048
:10AE1000152B11D003EB430201331CF802107145CE
:10AE2000F6D10244617992F9EA202068D3B20D2B61
:10AE300002D8BDE81040B3E7002010BD00207047E5
:10AE4000983B0020800AA0F58010532806D8044BB8
:10AE50001B5C0C2B02D8034AD05670470020704769
:10AE600020170708E0A8070808B508485AF054FA60
:10AE700040220748002166F0EEFB064B4FF0FF3200
:10AE8000C3F82821C3F82B2108BD00BF0E004400E1
:10AE9000C8320020983B002058B183884FF0004210
:10AEA000B3FA83F332FA03F303D002490A68134377
:10AEB0000B607047003C01400120FEF7C3B900BFA2
:10AEC0000220FEF7BFB900BF0420FEF7BBB900BFE8
:10AED0000820FEF7B7B900BF1020FEF7B3B900BFD6
:10AEE0004FF47870FEF7AEB94FF47C40FEF7AAB984
:10AEF00030B1036882881B691A4214BF0120002008
:10AF0000704700BF30B50C4683B0054618B30368E0
:10AF100003F13F4303F57E039B0A104A134493F861
:10AF20008C0261F0BBFEA9880091C4F30013C4F346
:10AF300041128DF8043028688DF8052004F00303D1
:10AF40006946C4F381048DF806308DF807405BF044
:10AF500039F903B030BD4FF0FF33DEE720170708A3
:10AF600000B1CFE7704700BF0E4B70B5D3F8BC6798
:10AF7000002E14DD0C4C002503E0B54204F1200442
:10AF80000DD0237F0135002BF7D0E0680028F4D0E6
:10AF9000217DFFF7B7FFB54204F12004F1D1012074
:10AFA00070BD00BFA02A00205C1C0020F8B502681C
:10AFB0000446007C1368022181400B4206D11168CF
:10AFC00008238340194218BF5360F8BD042383400F
:10AFD000656951605360EFF31183502282F3128848
:10AFE0002A6C1168C9070BD5DBB283F3118895F879
:10AFF0006C3013B195F88560EEB12268207CDEE7F5
:10B00000516889B279B9D5E9097087422AD0AE6909
:10B010000644D66021D82E69301A80B25060A962E9
:10B02000002185F86C10116841F00101DBB211605C
:10B0300083F31188DBE795F87A0010F051FFAB6ECF
:10B04000DA68012166F3C302DA6085F8851000280A
:10B05000D3D02821FFF756FFCFE7381A80B25060CF
:10B06000AF62DDE7012285F86C20BDE770B50C46C4
:10B0700082B016460546002847D0036803F13F43D7
:10B0800003F57E039B0A224A134493F88C0261F075
:10B0900005FEAB880093C4F34113C4F300128DF88E
:10B0A0000530694604F0030328688DF80420C4F3D2
:10B0B00081048DF806308DF807405BF083F8AB888B
:10B0C0002A68B3FA83F3C3F11F0303F00701890071
:10B0D00013F0F80F06FA01F60BD1136A0F2000FAED
:10B0E00001F123EA01011162136A1E43166202B0E4
:10B0F00070BD536A0F2000FA01F123EA0101516289
:10B10000536A1E43566202B070BD4FF0FF33BAE778
:10B110002017070800B1A9E770472DE9FF47A04CA9
:10B12000542303FB0043074653F86C6C002E00F0D9
:10B130002B8153F8648CB8F1000F04D098F80630D6
:10B14000002B40F02181542303FB074353F8605C3C
:10B150001DB1AB79002B40F017817B1CDBB2B8F13D
:10B16000000F04D0152288F8062088F8073015B1A2
:10B170001622AA71EB71307E61F090FD294640469F
:10B1800063F052F8542047433C44404614F85A3C7C
:10B1900014F85C2C002B14BF36211621FFF7BAFFE0
:10B1A00014F85A3C14F85B2C002B14BF36211621DE
:10B1B0002846FFF7AFFF7B4807443C220021384672
:10B1C00066F049FA54F86C3C5D6844F8545C684693
:10B1D0005AF032F8DDED037A34F8588C9FED727A2C
:10B1E000DFED725AF8EE677AF0EE083AC7EE274ABA
:10B1F0004FF0000E40F2145407EE908A9FED6C7AE7
:10B20000F8EEE77A64EEA33A87EE274ADFED697A33
:10B21000B0EE007AE4EE877AE4EE875A74EE672A9D
:10B2200037EEA56AB7EE005AB8F5C87F0EF1010CEB
:10B2300007EE90CAD5BF642332234FF4967078206E
:10B240000344B8EEE77A07EE903A27EE247AF8EE58
:10B25000E76AD8BF4FF4167986EE873ACABF4FF433
:10B26000827921464FF4FA7101EB090373EE456AC6
:10B27000FCEEE67A17EE902A07EE909AB8EEE73ADF
:10B2800007EE903A23EE043AF8EEE77AC3EE276A27
:10B2900036EEE53A72EEE66AC3EE077A77EEC57AE5
:10B2A000FCEEE77A17EE901AC6EE877A77EEC57A4B
:10B2B000FCEEE77A17EE903A03F1020909EB010A76
:10B2C00007EE90AAF8EE677AF0EE466AE7EE276A94
:10B2D000B4EEE64AF1EE10FA5BDC5FFA82F9B9F1FE
:10B2E0000F0F58D8323807EE900AF8EEE77A77EE6B
:10B2F000E37AC7EE876AFCEEE67A17EE900A5FFA09
:10B3000080F9B9F10F0F46D81FFA81F9B9F1FF0F93
:10B3100041D81FFA83F9B9F1FF0F3CD81205264B2B
:10B3200049EA0E7402F07F620004144300F47F00C7
:10B33000044303EA01210C433846FDF761FC2B6806
:10B340006FF300032B602C612B6843F470632B6058
:10B35000AB686FF38A23AB60AB686FF30903AB6034
:10B36000AB6843F40043AB600022114696F91A0023
:10B370005AF070FF002296F9190011465AF06AFF40
:10B380002B6843F001032B6004B0BDE8F087E6466C
:10B390004AE7013192E7BCF10F0FF8D10024CBE767
:10B3A000983B0020443B0020286B6E4E0000164363
:10B3B000002474490000704200FFFF002DE9F843AB
:10B3C000B04D05EB0017D7F83031002B00F0C580E9
:10B3D0000446060197F83A0161F060FC97F83A31AB
:10B3E00003F01F025B090121013B01FA02F2042B69
:10B3F0000BD8DFE813F0DC000500E200E800EE0007
:10B40000A14B596921EA02025A61AB19013493F840
:10B41000340110F065FDE4B2804610B1122383714F
:10B42000C471AB1993F8350110F05AFD814610B183
:10B430001323C4718371AB1993F8360110F050FDDA
:10B44000074610B11423C4718371AC19404694F8B7
:10B4500037212621FFF75EFE94F838214846262141
:10B46000FFF758FE94F8392138460621FFF752FEBF
:10B47000D4F83031854A934200F0C980844A93421F
:10B4800000F0AD80834A934200F0E680824A934206
:10B4900000F0ED80AB19814AD3F83031596841F0A2
:10B4A00002015960596841F001015960D9696FF38F
:10B4B000CB21D96192F8781400295FD1186861F323
:10B4C000CF301860186861F38E301860186861F327
:10B4D0008A201860196892F87F4464F34921196042
:10B4E00092F87904196801285BD06FF3082119607C
:10B4F000196860F38201196092F87A1407292ED82E
:10B5000058686FF34920586058686FF308205860F6
:10B51000186861F3C5001860196892F87B4464F3F9
:10B52000C7111960196892F87C4464F3CB21196043
:10B53000196892F87D4464F341011960196892F822
:10B540007E2462F3000119601A69072060F30F027C
:10B550001A611A6842F040021A60BDE8F8830A29AD
:10B560006DD058686FF349205860586840F4807077
:10B570005860186861F3C5001860CDE7012951D003
:10B58000022937D00329A5D1196841F40041196077
:10B59000196841F48041196019686FF38A211960B4
:10B5A00098E7012CA1D141F480711960A0E7364BD6
:10B5B000196921EA02021A6127E7334B996921EAE6
:10B5C00002029A6121E7304B596A21EA02025A626B
:10B5D0001BE72D4B196A21EA02021A6215E730486F
:10B5E00059F09AFE2F4AD2F8203823F48043C2F84B
:10B5F00020384FE7196841F40041196019686FF36A
:10B600008E31196019686FF38A21196062E7264844
:10B6100059F082FE234AD2F8243823F48053C2F82A
:10B62000243837E719686FF3CF31196019686FF361
:10B630008E311960196841F4806119604AE75968D0
:10B6400041F40071596059686FF308215960196815
:10B650006FF3C50119605FE7144859F05DFE114AA8
:10B66000D2F8203823F40043C2F8203812E71048FB
:10B6700059F052FE0B4AD2F8243823F40053C2F892
:10B68000243807E7983B0020003802400030014092
:10B6900000380040003C0040003401400000002021
:10B6A0000E002000003002400C0024000F0020009B
:10B6B0000D0024002DE9F04F8DB0A94B0793A94B45
:10B6C000DFF8C0820024A3F52575A74FDFF894A208
:10B6D000BB0AA3F58013532B4FF000064BD8EB5C4D
:10B6E0000C2B48D818F90390A04B93F88231012B0A
:10B6F00040F00781B9F1010F33D14FF0010B1FFA70
:10B700008BF1484617F014F817F0A0F8037813B13E
:10B71000542B40F01F810BF1010BBBF1050FEED153
:10B72000ACB34FF0000C8E4A00210BE0EB5C0C2B0D
:10B730000FD818F903304B450ED00131A14202F168
:10B74000AC0221DA906803689B0AA3F58013532B9F
:10B75000ECD900234B45F0D143799AF80500984283
:10B76000EBD10136082E45D05AF81C7FBB0AA3F551
:10B770008013532BB3D97D4B93F88231013B012BBE
:10B78000EFD94FF00009B8E7BCF1000FE9D1DAF8C2
:10B790000800774B002205E001320E2A03F10C036A
:10B7A00000F0CA8359688842F6D152B29AF805105F
:10B7B0003846FFF7F5FA6F4A40680023516888421F
:10B7C00003F1010300F09A800E2B02F12402F5D15F
:10B7D0004FF0FF33684A03EBC30302EB830393F894
:10B7E000F031002BBDD15F4BC6EBC60603EB8606DE
:10B7F000079B9E60079B0134AC33042C07937FF4B6
:10B8000064AFDFF8849109F204434FF0010B9846CE
:10B810005A4BD3F8BC270BF1FF339A426BDDD9F8B2
:10B820000C50002D00F084832968AE8801F13F415F
:10B83000B6FA86F601F57E01C6F11F06890A504B5D
:10B840001F68002F40F3A4800433002405E0013476
:10B85000BC4203F1AC0300F099801A688A42F6D129
:10B860003F4AC9F80460AC2303FB0424C9F818401C
:10B870005FFA8BF315B1EB710323AB71404B616C35
:10B8800093F87806E36B7200032797403B43E3632A
:10B89000012303FA02F20A436264002839D0A26C41
:10B8A00003FA06F63243A2646DB1304BAA8893F8CE
:10B8B000D8112B68490141F0050101F0E5019A61B9
:10B8C0002846FFF71FFB606FB1B20122FCF798FB1F
:10B8D00020460BF1010BFCF771FC0123BBF1090FB2
:10B8E00089F81C3089F81D3088F8113009F12009D9
:10B8F00008F118088CD10DB0BDE8F08FDBB2013B28
:10B9000068E7022B7FF4F9AEB9F1080F3FF4F5AE0A
:10B9100027E7A26C06F1100103FA01F10A43A264C1
:10B92000002D00F08B8003FA06F6104BAA8893F8DE
:10B93000D8112B68490141F00501120401F0E5011D
:10B940009A612846FFF7DEFA606FB1B20022FCF779
:10B9500057FBBDE74FF0010C002C7FF4E4AE00E78D
:10B96000AC190020B419070800040140983B0020DE
:10B97000D0030020D801002000000020A02A0020D1
:10B98000A8190020E0A807085C1C0020032C58DC44
:10B990008B4AAC2303FB0723D868002800F0C18240
:10B9A0005422596083F8AC200131854A83F8AD10E8
:10B9B0007B1C1360834B99F8102093F899310892FF
:10B9C0008168814C00229C4605E001320E2A04F178
:10B9D0000C0400F0B18263689942F6D141790068A5
:10B9E000CDF81CC052B2FFF7DBF9754BDFF800A2AF
:10B9F000D0E90141AC2202FB0732079BC2E90541B5
:10BA0000514600224868844202F101021ED00E2AEB
:10BA100001F12401F6D16D4B93F8CC21002A00F0FE
:10BA2000288268486A496B4A6B4BC0F8C011C0F85D
:10BA3000B821C0F8C8310DB0BDE8F08F03FA06F6A2
:10BA400082E7604A032382F89831EAE7D2B25F497D
:10BA5000013A02EBC20201EB8202AC24584992F88F
:10BA6000F001099007FB04F401EB040C0146BCF85B
:10BA7000AC000029D5D1A2F8F001621002EBA402BB
:10BA8000C2EBC21202EB8232920102EBA4025349D2
:10BA9000520002EBA40202EB420E0C4450498C20EF
:10BAA0000EEB0E1E00FB02F201EB8E0E01F54C7147
:10BAB00001EB42020A922A68CCF808200A9ACCF8D4
:10BAC00098203322DCF80C10CCF87C203F4ACCF8CC
:10BAD0009C00062B086812680791CCF878E000F00B
:10BAE000F581072BDFF80CC13E4B3F4908BF1946D3
:10BAF0003E4B08BF6346B2FBF1F101F1FF3C304918
:10BB0000B2FBF3F3AC2202FB0712013B9BB2A2F89B
:10BB10006030A2F880C0C36200238362426942F0B1
:10BB200001024261026863F309220260026863F362
:10BB300006120260036843F080030360036843F069
:10BB400080030360079B597901394900C9B207296D
:10BB50000BD8DFE811F0B8010A00B5010A00B20104
:10BB60000A00AF0108000A23436703686FF300036C
:10BB70000360002201230393019304920292009236
:10BB8000062261F07FFF01231A46079B5979186846
:10BB90000139914001F0FE015AF0A2FB079A537956
:10BBA0001268013B5B00DBB2072B29D8DFE813F0FA
:10BBB0007D01280078012800730128006E0124000F
:10BBC000A8190020983B0020D0030020000000208E
:10BBD000118A01080D8A0108198A0108AC19002090
:10BBE000743D00201055220044950800D0DD060069
:10BBF000D801002040771B00136F43F00803136740
:10BC0000079B1879002840F07781136843F00103FF
:10BC10001360B04AAC2303FB072359690023DAF809
:10BC20000420914203F1010300F01E810E2B0AF162
:10BC3000240AF4D14FF0FF3AA74A0AEBCA0302EBF9
:10BC40008303A64AD3F8D801079390420CBF36204D
:10BC5000382061F023F8079B9E4AD3F8D811A048FA
:10BC6000AC2303FB0723D1F8002142F00102C1F805
:10BC70000021DA684FEACA0307935379D2F800C06B
:10BC8000944A013BDBB2032B9BBF964901EB430374
:10BC90000021B3F87413AC2303FB07234FF0000E0D
:10BCA0001982734606E0944500F040810133042B6D
:10BCB00000F0458150F83320002AF4D18A4A9E468C
:10BCC0001346D2F8C0270132C3F8C02703EBCE02D7
:10BCD0004FEACE03C2F8C4C7034409989A881143B7
:10BCE0009980902281492346FEF7DCFF079B7A4A20
:10BCF0007849534402EB8303AC2202FB0717D3F8C5
:10BD0000F831B9691A6861F306021A607B691A682A
:10BD100042F002021A604FF4407C4FF4807A102205
:10BD2000A4F870C0A4F86CA0A4F86820B7F87CE070
:10BD3000A4F86AE0B968022201F1180084F86E20C4
:10BD4000206609901031B86F84F86F200791196848
:10BD5000606621F4804121F010010904090C19608A
:10BD6000196841F010011960196841F440511960D7
:10BD7000196862F38B211960196862F3092119604F
:10BD80001A6842F080021A601A686FF386121A600D
:10BD90001A686FF345121A605A686EF30F025A6000
:10BDA000099A9A60D8601A68E2615A6822629A68B1
:10BDB00062620021DA68A262A4F88CA0A4F890C0A4
:10BDC000A4F88810079AB7F89C00C4F880200122D4
:10BDD00084F88E20A4F88A00D7F898C084F88F20C1
:10BDE0001F68C4F884C027F4804727F010073F0479
:10BDF0003F0C1F601F681F601F6847F440571F609B
:10BE00001F6862F38B271F601F6862F309271F609A
:10BE10001A6842F080021A601A6861F386121A608A
:10BE20001A6861F345121A605A6860F30F025A608B
:10BE3000079A9A60C3F80CC01A68E2625A682263D3
:10BE40009A686263DA68A2631A6842F002021A60B2
:10BE5000089B89F81030C9F80460C9F80C50C9F87B
:10BE600018405FFA8BF306E5DBB2099303F1FF3A62
:10BE7000E2E61849AC2202FB071292F8AD1092F8E4
:10BE8000AC2083F8CC2183F8CD11CAE5D36943F403
:10BE90000063D361B4E6D36943F00803D361AFE62E
:10BEA000936943F400639361AAE6936943F008033E
:10BEB0009361A5E60A23036457E60A23C36354E6A5
:10BEC0000A23836351E60A2343634EE60849094B7C
:10BED00011E600BFA8190020000000200064024005
:10BEE0006432002020170708A02A0020418B000898
:10BEF000882A1100A0BB0D000B920FF0F1FF0B9AE6
:10BF00000A9048B1079B0A21DA79FFF7AFF80A9B3C
:10BF10005422DA80079B1A68536C43F4004353643D
:10BF200073E6084A022382F898317AE5DB00D3E60B
:10BF30004FF0FF36314682E400235B68FFDE0023CA
:10BF40009B88FFDE983B0020F8B590F87A301C09FA
:10BF5000013C072C0FD81A4E06EB44020546B2F8F6
:10BF60007C0303F00F0340FA03F2D20703D595F8E0
:10BF70008570012F01D00120F8BD07FA03F3013BC2
:10BF80001840344463F028FD94F88C230D49104484
:10BF900051F8302001EBC00110698B881840EBD0BC
:10BFA000002395F87B2085F8853008460A21FFF7A5
:10BFB0005DF8AA6ED36843F00803D3603846F8BD35
:10BFC0002017070804450020094AD2F8EC3BD2F8B4
:10BFD000F02B002140F22A4058605162116841F074
:10BFE000010111601A6842F001021A60704700BF37
:10BFF000983B0020002800F0AB812DE9F04F002293
:10C0000087B02F21064616F077FC0546E0B1654F54
:10C01000D0F80090C7F8F09BFEF7F0FE804698B18C
:10C020004068C7F8EC0B78B15F4C0023224651689A
:10C03000884202F1240203F101030FD00E2BF6D146
:10C040005A4B93F8CC0118B1002007B0BDE8F08F2F
:10C050002F2283F8CC2183F8CD01F6E7DBB2DFF89D
:10C060004CA1013B03EBC3030AEB830393F8F0B14C
:10C07000BBF1000FE8D130462F26A3F8F0610FF096
:10C080002FFF0346C7F8F80B20B1DE80EA790A21BA
:10C09000FEF7ECFF464A4749002301E051F8332000
:10C0A000914500F05F8101330F2BF7D1002060F044
:10C0B000F5FDD7F8F00B404A03686FF30003036007
:10C0C000DAF800309342C0F0458103F1B7723B4982
:10C0D00002F55852A1FB0221890D013989B24A1C8F
:10C0E0000139B3FBF2F3364A364E1B0AA2FB032397
:10C0F0001A09A6FB026252081B09A7F8F62B013B9E
:10C100005200C362A7F8F42B8162436943F0010334
:10C11000436103686FF30923036003686FF3061339
:10C120000360AA7912F0020600F0178102F00106FE
:10C13000002213464FF0010C697901394900C9B258
:10C1400007290DD8DFE811F041010C003C010C007B
:10C1500037010C00320108004FF0000EC0F874E007
:10C16000CDE90126002203930092CDF810C00622EB
:10C1700061F088FCD7F8F00B036843F0800303609C
:10C180006B79013BDBB25A00D1B2072920D8DFE836
:10C1900011F008011F0003011F00FE001F00F9003D
:10C1A0001B0000BF983B0020D801002000000020A9
:10C1B00000000140B41A0708006CDC02819F5E1683
:10C1C000598B4F01ABAAAAAA066F46F0080606676C
:10C1D000032B9CBF844BD218C36894BFB2F874235E
:10C1E00000221343C360AB799B0748BF01314FF076
:10C1F000010248BFC9B25AF073F8D7F8EC0B2246D7
:10C2000000235168884202F1240200F0B780013314
:10C210000E2BF6D14FF0FF3606EBC6060AEB86066C
:10C22000724BD6F8D80198420CBF3620382060F007
:10C2300035FDD6F8D811D1F8003143F00103C1F82B
:10C240000031D7F8EC6B2246002351688E4202F190
:10C25000240203F1010300F08E800E2BF5D1644916
:10C26000584600236022FEF71DFD33686FF300037C
:10C270003360304659F05EF86B79D7F8F05B012BEC
:10C2800000F0A880022B00F0A880032B00F0A8800B
:10C29000042B16BF05EB830305F1400103F13001C8
:10C2A000D7F8EC3B1A684BF6EF7002401A601A6838
:10C2B00042F010021A601A68012060F30D321A6011
:10C2C0001A68022060F38B221A601A6860F3092250
:10C2D0001A601A6842F080021A601A686FF38612B8
:10C2E0001A601A686FF345121A605A6840F22A40C1
:10C2F00060F30F025A603F4A9960DA600022616879
:10C300008B4204F1240402F1010231D00E2AF6D14D
:10C310004FF0FF3202EBC2020AEB820AD8F80800A3
:10C32000DAF8F821116860F3060111601A6842F02A
:10C3300002021A601A68012002431A606B6C43F40F
:10C3400000436B642B6803432B6007B0BDE8F08F9C
:10C35000002070474FF0FF31C5E602F00102B446FD
:10C360000123E9E6204A02EBC30393F898039EE613
:10C37000D2B2013ACEE75FFA83FB70E75E1CF6B2F9
:10C38000013E49E7C66946F40066C66120E7C66912
:10C3900046F00806C6611BE7866946F400668661BA
:10C3A00016E7866946F00806866111E74FF0000E31
:10C3B000C0F840E0D4E64FF0000EC0F83CE0CFE615
:10C3C0004FF0000EC0F838E0CAE64FF0000EC0F89B
:10C3D00034E0C5E605F1340162E705F138015FE7B5
:10C3E00005F13C015CE700BF20170708006402402C
:10C3F0000D820008189F002030B40B4A0B4B82B00E
:10C40000CA25532402EB800000225D625C62019227
:10C4100001905D625C620198FF2201605A625A627B
:10C4200002B030BC704700BF5028004000280040D8
:10C43000F0B5013B0E469DB2644B34681B68B3FBFC
:10C44000F2F2013AE562A262636987B043F0010348
:10C45000BDF830109DF83420636123686FF3092321
:10C46000236023686FF3061323607579B379074659
:10C470000AB183F0010313F0020010D0002203F090
:10C4800001004FF0010C1346013D6D00EDB2072D88
:10C490000AD8DFE805F01D094A0980095C6E03F03F
:10C4A000010284460123EFE7CDE90120002200923A
:10C4B0002946CDF810C0039306222046023D61F0C4
:10C4C000E1FA052D14D8DFE805F03D1373134F6131
:10C4D00061630021CDE902030192CDF810C0009103
:10C4E0000622204661F0CEFAA36943F00803A36157
:10C4F0003268536C43F400435364136843F0010300
:10C5000013607379012B58D0022B59D0032B5AD0CA
:10C51000042B16BF02EB830302F1400330330021EA
:10C52000C7E90032196007B0F0BDA1630192002293
:10C53000CDE902030092CDF810C006220221204668
:10C5400061F0A0FAA36943F40063A361D0E721641A
:10C550000192002200920622CDE90203CDF810C01C
:10C560001146204661F08EFAE36943F40063E3610B
:10C57000BEE7616701920022CDE902030092CDF887
:10C5800010C006220721204661F07CFA236F43F099
:10C5900008032367ACE7E16301920022CDE90203BF
:10C5A0000092CDF810C006220421204661F06AFAFC
:10C5B000E36943F00803E3619AE702F13403AEE76D
:10C5C00002F13803ABE702F13C03A8E700000020CA
:10C5D0002DE9F04FD0F80890046C99F805A099F86F
:10C5E0000680D9F80060054687B020460AF1FF3B77
:10C5F00058F0A0FE5FFA8BF35F000022FFB208F054
:10C60000020885F82C20072F0DD8DFE817F0D2009C
:10C610000C00DB000C00E4000C00ED000800326FA1
:10C620006FF3C3023267B8F1000F15D1AAF102030C
:10C63000022B05D84FEA4A08A8F102085FFA88F8E9
:10C6400000224146304659F04BFEBBF1030F11D892
:10C65000DFE80BF096918C0C022B00F284804FEAFD
:10C660004A0808F1FF385FFA88F8E9E7F3696FF3E1
:10C670000923F36195F83B30049395F83A3003931E
:10C6800095F83930029395F83830019395F83730A2
:10C69000009395F8363095F835203946304661F0EC
:10C6A000F1F999F805309A1E022A50D900237363D4
:10C6B00041460122304659F013FE072F09D8DFE822
:10C6C00007F073086E0869086404336F43F00803C9
:10C6D000336723684BF6EF7110220B402A842360E6
:10C6E000236813432360236895F8292062F30D33F0
:10C6F0002360236895F8272062F38B232360236847
:10C7000095F8262062F309232360236895F82520F5
:10C7100062F3C7132360236895F8242062F386131D
:10C720002360236895F8282062F34513236063682B
:10C730006A8C62F30F036360D5E90623A260E360AD
:10C74000236843F00203236007B0BDE8F08F5B006D
:10C75000023BDBB2042B53D0062B4ED0022BA7D1C9
:10C760000023B363A4E74FF0000869E7F3696FF3B0
:10C770000103F3617EE7B3696FF30923B36179E7DE
:10C78000B3696FF30103B36174E7F36943F40063C2
:10C79000F3619EE7F36943F00803F36199E7B36936
:10C7A00043F40063B36194E7B36943F00803B361F2
:10C7B0008FE7B2696FF3C302B261B8F1000F3FF4C3
:10C7C00035AF49E7B2696FF3CB22B261B8F1000F20
:10C7D0003FF42CAF40E7F2696FF3C302F261B8F1A6
:10C7E000000F3FF423AF37E7F2696FF3CB22F2611A
:10C7F000B8F1000F3FF41AAF2EE70023336457E778
:10C800000023F36354E700BF2DE9F04FB44B93F8D6
:10C81000784685B024B90124204605B0BDE8F08FE4
:10C82000B04ED6F8A05210F09FFCAF4B93F8303CBE
:10C83000002B00F04D81AD4BAD4FA3FB05235B09F1
:10C84000A7FB0327FF0807EB8707A3EB4707D6F8EB
:10C850007038C31A0093A24B03F56D7BFBB206F54B
:10C860007378019306F2AC6308EB87075D460026F8
:10C870009946CDF80CB011E02846FFF7A9FE9A4B77
:10C8800093F8304C0136A64208F15C0807F15C07CA
:10C8900009F1140905F14C0580F2C180009A002AC3
:10C8A00003DB2B6B934200F3FD808D4B4C2202FB8C
:10C8B000063393F8E033002BDED0AB68A9891A6801
:10C8C0002B6C5B681FFA83FED368CEF1160E23EA49
:10C8D0000103BEF1070FD360CED9824AD2F8B43635
:10C8E0000133C2F8B436AB6C02939C46002201219E
:10C8F0005CF8044B92468B461BE0DCF80000BAF172
:10C90000140FA0EB04031DDC13F1080448BF03F16E
:10C91000170423110AEB241A0446581E013102FAA7
:10C9200003F38E450BFA00F242EA03020CF1040C09
:10C9300008D37145E1D3CAF11503DCF800404FF08C
:10C94000150AEAE7BAF1150F5ED16A48C2F38423EB
:10C95000C2F3441100EB830300EB8101D3F80C34E4
:10C96000D1F80C141B0243EA011302F01F0100EB83
:10C970008101C2F3C43200EB8202D1F80C14D2F868
:10C980000C240B4343EA023383EA132282EA121295
:10C9900002F00F020F2A37D1C3F30F134FF6FF72C5
:10C9A000934231D0B3F5606F00F08180A9F80C306C
:10C9B00098F858200198824210D0B968D8F8002021
:10C9C000521AC8F80020396BD8F80420521AC8F857
:10C9D00004200022BA603A6388F85800D8F8002092
:10C9E0000132C8F80020BA680132BA604FF6FF720F
:10C9F00093427FF441AFD8F804300133C8F80430D3
:10CA00003B6B01333B6337E7364AD2F8B03601332C
:10CA1000C2F8B036002E3CD04FF6FF73C8E731495C
:10CA2000DDF80CB00122002381F8B027C1F870387E
:10CA3000002C3FF4F0AE04EBC40304EB43040BEB17
:10CA4000840403250CE0022E03F1FF331FD90021DB
:10CA500001220BF14C0B59F043FC5C453FF4DBAE7B
:10CA6000DBF808301868426865F3061242609BF8EC
:10CA700010105B7911F0020103F1FF36A3F10202FD
:10CA80004FEA4303DFD1022AA3F10203E0D8D9B26F
:10CA9000DEE702F5EB600299582264F079FD4FF66B
:10CAA000FF7385E70024204605B0BDE8F08F0C49F0
:10CAB00091F8152602EB420201EBC202324492F8D1
:10CAC00025260D2A7FF472AF802289F81E206FE799
:10CAD0000449012281F8B027C1F870389CE600BFF4
:10CAE000A8190020A02A0020983B00201F85EB51A8
:10CAF000CDCCCCCC20170708F0B5044685B0A56E88
:10CB0000EB686FF34D33EB6068466679A76858F0C1
:10CB100093FB934B9D4206F0020605D003F580631C
:10CB20009D4201D0039B00E0029B03EB83035A006C
:10CB30008C4BB2FBF7F2A3FB0213DB0803EB830180
:10CB4000A2EB4102042A88BF0133AA689BB263F3B7
:10CB50000F02AA60EB686FF31C73EB60EB686FF376
:10CB60000C33EB602B6966F30D332B616679A26E93
:10CB70007107C6F3800300F18880D16863F349210F
:10CB8000D160D16863F38A21D16053696FF30823C0
:10CB9000536153696FF349235361217911F0010700
:10CBA00040F0C48011F0020540F0BB806E4B03F1F1
:10CBB000200053F8041F8C4254D09842F9D116F04B
:10CBC00008035DD0536943F008035361D36843F40D
:10CBD0000053D360002F3DD0E06B002800F0AB8005
:10CBE0006569666EA78958F0A5FBE36B1A684BF67A
:10CBF000EF710A401A601A681A601A68012161F31D
:10CC00000D321A601A686FF38B221A601A686FF37C
:10CC100009221A601A6842F080021A601A686FF3DB
:10CC200086121A601A6842F020021A605A6867F386
:10CC30000F025A609E60DD601A680A431A60A16E96
:10CC40004A6942F040024A615B6821799BB2E36520
:10CC500001F0020515BBA26ED36843F40053D36004
:10CC600005B0F0BD002CAAD094F88430002BA6D0DB
:10CC7000A16E0B6943F400430B6116F00803A1D1C8
:10CC8000516963F3C3015161A0E7D3686FF349238E
:10CC9000D360D36843F48063D36076E7206C0028C8
:10CCA00055D0266EA569278A58F044FB236C1A6874
:10CCB0004BF6EF710A401A601A6842F010021A60CF
:10CCC0001A68012161F30D321A601A686FF38B2222
:10CCD0001A601A686FF309221A601A6842F080021B
:10CCE0001A601A686FF386121A601A686FF3451299
:10CCF0001A605A6867F30F025A609E60DD60196817
:10CD0000A26E41F00201002019605860536943F09F
:10CD1000800302F10C0153610B6843F040030B6088
:10CD20009AE7D36843F00803D3603FE7D36843F042
:10CD30000403D36036E76FF020031360D36843F039
:10CD40002003D360D36843F01003D36082E7A26E60
:10CD5000D36843F0800302F10C01D360DCE700BF2D
:10CD600000100140CDCCCCCCCC4700202DE9F843BD
:10CD7000434C04EB8004D4F8384C002C3DD0656F54
:10CD8000A1601F463F4B23606B68A366AB6B63617A
:10CD90006B6BA361EB8FE360AB8F23613A4B23672F
:10CDA0000646204690460FF043FC95F82C000028DC
:10CDB0005DD194F87A000FF093F80222390794F8C5
:10CDC000789084F885201BD588B317F0510F0CBFDD
:10CDD0000122002217F0010F14BF4021202141EA57
:10CDE000021101360B22C671827194F87B2041F04A
:10CDF0000601FEF73BF9E36B6BB32046BDE8F88311
:10CE000018F0020F13D090B10B22827117F0410776
:10CE100006F10102C2712DD1A36EDA68012167F318
:10CE2000C302DA6084F885102821FEF76BF818F049
:10CE3000010FE0D048460FF053F80028DBD00C2259
:10CE40000136C671827194F879200A21FEF70EF935
:10CE5000E36B002BD1D195F8301095F92E00C1F37A
:10CE60000112890959F0F6F92046BDE8F8835FF010
:10CE700015FF9EE794F87B200A21FEF7F7F8D6E726
:10CE8000983B0020AC1B070849BF00082DE9F0477C
:10CE9000884600294AD04618DFF89890DFF898A015
:10CEA000451E013E8024EFF3118184F31288D9F8E6
:10CEB0009832D9F89C02D9F89822D9F89CC2C9B204
:10CEC00081F31188624512E0012015F007F9EFF3B4
:10CED000118184F31288D9F89832D9F89C02D9F8D4
:10CEE0009822D9F89C72C9B281F31188BA428CBFDA
:10CEF000002201221B1A03EBC223012BE4D0EFF323
:10CF0000118284F31288D9F89C3215F8011F53441A
:10CF1000D2B283F8581CD9F89C320133C3F30A0308
:10CF2000C9F89C3282F31188B542BCD14046BDE8B5
:10CF3000F08700BFA02A0020983B0020F8B50D4BD9
:10CF400093F89C3C032B00D0F8BD0B4E0D46D6F851
:10CF5000A072144609E0FFF799FFD6F8A032DB1B58
:10CF6000322BA4EB00040544EED8002C21462846C1
:10CF7000F1DCF8BDA8190020A02A0020344BD3F81A
:10CF8000BC39596A91F85230012B56D170B5314CE9
:10CF9000314AD4F8600360BBD2F89802D2F89C32D0
:10CFA000984221D0D2F89802D2F89C32984249D8BF
:10CFB000D2F89C32D2F898021B1AD2F8982291F833
:10CFC000520088B1B3F5007F28BF4FF400731D46AF
:10CFD000002381F85230214921480A44ABB2812113
:10CFE00059F0AAF9C4F860531E4B6FF001021A61A0
:10CFF00070BDD2F8985200F03F032844C2F898025E
:10D00000D2F89802B0F5006F04BF0020C2F8980271
:10D010000020C4F86003002BBED1D2F8982291F80A
:10D0200052000028E4D00D4881F852300244BDE897
:10D0300070400B48812159F07FB90A4B6FF0010213
:10D040001A617047D2F89832C3F50063B5E700BFA4
:10D05000A8190020904C0020A02A0020F0470020B2
:10D0600060230020004C01405EF0CEBC344B2922EE
:10D0700070B5A3F8CA29A3F8D229FCF75BF9314AA5
:10D08000314ED2F83438314C43F08003C2F8343892
:10D09000FBF7B2F95FF054FD59F0CEFF4FF0A0401E
:10D0A0002B49826B01F5805342F400128263C3F86E
:10D0B0007C634FF401660122A3F87A634FF4817612
:10D0C0000025C1F8B40983F8782383F8852304F593
:10D0D000956104F59062A3F8806383F8835360F050
:10D0E000B1F823681B4A1C4C1C4EA2FB03239B096E
:10D0F000013B0422E262A3626369194A43F001031F
:10D100006361236865F3092323602368C6F86423F9
:10D1100065F306132360236843F080032360E3680C
:10D1200043F00103E36069202A46022159F092F896
:10D13000236843F00103236006F5597070BD00BFFA
:10D14000983B0020003002404000400100000020D9
:10D15000A8190020D34D6210004C0140904C0020D3
:10D16000DC1B0708BFF34F8F0549064BCA6802F462
:10D17000E0621343CB60BFF34F8F00BFFDE700BFFA
:10D1800000ED00E00400FA0508B572B6FFF7EAFF0B
:10D19000F0B5A34BB3F5C07F85B000F0918100F2EC
:10D1A0001781B3F5807F00F03881B3F5A07F40F0A0
:10D1B0000A8103249B4B1B8A03F00703A34240F020
:10D1C0008181994858F0A8F89849994B0A6899487C
:10D1D00042F480720A60FF24CA2153225C625962C1
:10D1E0005A62D0F87438DB0000F1FD80924A904B0F
:10D1F000924FCA2553240020FF215D625C62029099
:10D2000002925D625C62029E0432BA4230605962F0
:10D210005962F2D18A490020FFF7EEF8894B0021CC
:10D2200003910393039B1B680093009B012B00F069
:10D23000EA807D4858F070F87C4A834B10690121E0
:10D2400061F3020010611A6E61F301021A6657F071
:10D25000C9FF7E49774A0B6843F480330B60D2F8EC
:10D2600000389F0307D44FF44053D2F800188E03C0
:10D2700001D4013BF9D1D2F800389D03EFD57349B1
:10D280006C4A0B6843F001030B60D2F800389C072E
:10D29000FBD56E4B67495A6842F480025A605A685F
:10D2A000482464F38E125A605A68012060F3030226
:10D2B0005A605A6860F312425A601A6842F08072EB
:10D2C0001A60D1F800389801FBD5604B9A686FF36B
:10D2D00007129A609A68042161F34F329A609A6843
:10D2E00061F38C229A60D3F8A42042F03002C3F894
:10D2F000A4209A68022060F301029A609A68C2F33F
:10D300008102022AFAD1D3F8A4206FF30512C3F8E0
:10D31000A420D3F8A4200B2161F30F32C3F8A4207A
:10D32000D3F8A0206FF34D32C3F8A0209A6812F012
:10D330000C0FC2F3810100F0B580022900F09C803F
:10D34000434C444B2360414A434990682368434D12
:10D35000C0F303100144424891F8EC14CB40236021
:10D36000EB684FF6FF010B4043F0052343F47A03CB
:10D37000EB603C4B516FC3F8B8132E493A4BAB608E
:10D38000D1F8343823F00043C1F83438536F43F0F8
:10D390008073536757F0C0FF0FF070FE2368334A65
:10D3A000A2FB03239B09013BB3F1807F09D24FF01D
:10D3B000E022F02053610021072385F823009161CA
:10D3C000136105B0F0BD802B14BF05240624F1E6DF
:10D3D000B3F5E07F05D0B3F5007F14BF052400242A
:10D3E000E8E60124E6E6224B002201920193019A2D
:10D3F00003F11973126803F59E3303F2E1139A42A5
:10D400007FF4F4AE0AE70320FEF7F6FF194B1A6823
:10D4100082F308885B689847FEE70424CAE600BFE9
:10D42000C000000000C0FF1F1C0040000070004052
:10D430000028004000300240542800406C28004082
:10D44000316665425C280040003C024000380240E2
:10D450000000002000127A002017070800ED00E00D
:10D460001F003000904C002000000008D34D6210D7
:10D47000502800400000FF1F5A685A6859685868D1
:10D48000174C184DC2F38813C0F30240164A125CC1
:10D4900001F00F0105FB03F312FB01F2B3FBF2F302
:10D4A000236050E7D3F8A0200D4C52047FF549AF1C
:10D4B000D3F8A030DB047FF544AF0C4B236042E788
:10D4C000022477E60A4B0B490B4A59605A605964AB
:10D4D0005A6460F06BFB204660F046FBFFF754FE99
:10D4E0000000002000127A00D8A80708006CDC02B7
:10D4F000003C024023016745AB89EFCD014902485A
:10D50000FBF7BEBE202100200000014002494FF081
:10D510008040FBF7B5BE00BF4C2100200149024806
:10D52000FBF7AEBE7821002000040040014902480C
:10D53000FBF7A6BEA42100200008004001490248D4
:10D54000FBF79EBED0210020000C0040F8B5164D20
:10D550001648174F00214FF40F7264F07CF805F65F
:10D5600044364FF08041A5F5C2743A46002301E0ED
:10D5700054F8332091420BD001330F2BF8D1002007
:10D580001C355FF08BFBB5420CD055F81C1CECE74A
:10D59000084A02EBC3031C3593F898035FF07EFB47
:10D5A000B542F2D1F8BD00BF381C07082021002089
:10D5B000000001402017070838B559F03DFD1E4B0B
:10D5C0001E4D2922A3F8CA29A3F8D229FBF7B2FEDF
:10D5D0001B4857F0A1FEFAF70FFF5FF0B1FA4FF0CA
:10D5E000A04005F58053826B164942F40012826315
:10D5F000012283F8782383F88523134AC3F87C2318
:10D600004FF48172A3F880234FF401620024A3F841
:10D610007A2301F59A6201F59F61C5F8B40983F890
:10D6200083435FF00FFE224621464FF0FF3058F053
:10D6300011FE204638BD00BF983B0020A8190020ED
:10D640000700340000000020400040012DE9F041B7
:10D65000044690F8D10044F23B33A4F8FC3008B9FA
:10D66000BDE8F0810509013D072D00F00F0000F233
:10D67000C580644E06EB4503B3F87C2342FA00F301
:10D68000DB0740F1BB80012303FA00F00138354489
:10D69000104062F0A1F995F88C73DFF88C81074493
:10D6A00008EBC7052623EB80574BE360AB88B3FA42
:10D6B00083F3202BC3F11F0CD2D0544A544902EB00
:10D6C0008C020C346144C2F828484FF0004232FA10
:10D6D00003F311F8B86C05D04E4A116821EA030132
:10D6E0001160536108212846FDF70CFCAB8858F8FF
:10D6F0003720B3FA83F3C3F11F0101F0030402F1F1
:10D700003F4202F57E02A4000F20C1F38501920A78
:10D71000A04003290DD8DFE801F002665B503E49C6
:10D72000D2B2A2408C6824EA000088608868024374
:10D730008A60384A4FF0004424FA03F353611168B9
:10D7400021EA03011160516821EA03015160116867
:10D7500019431160916821EA03019160D16821EABF
:10D760000301D1609168194391602C4A324492F8C8
:10D770002811F02908D8002B3FF472AF25490A6818
:10D7800013430B60BDE8F081F02382F82831244A6E
:10D79000D3684FF6FF010B4043F0052343F47A03AF
:10D7A000D360204B03229857114658F053FDAB88A5
:10D7B000B3FA83F324FA03F3DDE71749D2B2A240A8
:10D7C0004C6924EA00004861486902434A61B0E7B5
:10D7D0001149D2B2A2400C6924EA0000086108692C
:10D7E00002430A61A5E70C49D2B2A240CC6824EA00
:10D7F0000000C860C8680243CA609AE7024BE36051
:10D800002EE700BF20170708EDA70008A02A002078
:10D8100018280708003C014000380140983B0020D0
:10D8200000ED00E0D0A807080445002090F88B30F8
:10D83000052B03D890F8CE30032B01D00020704781
:10D8400090F8D33003F0FB03022B0CBF002007201D
:10D85000704700BF2DE9F04302691778012F85B0AA
:10D8600004460D4618D10B79013B13714B79002BFF
:10D8700008BF682300F1100803754FF000093B460C
:10D880000DF10502752140468DF805900DF058FB0D
:10D89000064600283ED1226902231370EB7823B993
:10D8A0000026304605B0BDE8F08304F11008A978E1
:10D8B00040460DF0B9FF06460028F1D0E8780EF09A
:10D8C0000FFBA0612B780133DBB210B1C3712223AF
